:100000000C94E7230C9418240C9418240C941824B2
:100010000C9418240C9418240C9418240D949E0EFF
:100020000C9418240C9418240C9418240C94182460
:100030000C9418240C9418240C9418240D946AA77A
:100040000C9418240C9418240C9418240C94182440
:100050000C9418240C9418240C9418240C94182430
:100060000C9418240D94490F0D94780F0C941824B7
:100070000C9418240C9418240C9418240C94182410
:100080000C9418240C9418240C9418240C94182400
:100090000D94B30F0D94E20F0C9418240D9460137B
:1000A0000C9418240D9497A70C9418240C941824DD
:1000B0000C9418240C9418240D94C4A70C941824A0
:1000C0000C9418240C9418240D947D1C0D941D1070
:1000D0000D944C100C9418240C9418240C9418248F
:1000E0000C941824194465446E443B4454447744AA
:1000F0000645BE44B544A244C744DC44EF448044B2
:100100008F44124420450F45304538451244404540
:1001100012445245AC49664A4D4BB549DF49D8496E
:10012000384ACA49914AE649914A3F4A914A4D4B59
:10013000444A914A914AA149574F684F714F804FA5
:100140007F50CF4F7F507F507F502D507F506E4F4C
:1001500038507F504A507F5053507F507F507F50CF
:100160007F507F505C5063506A507F5073502B55C6
:1001700018587755445555558855BB551858185833
:100180005B561858FF551858AA55185818588E56C7
:10019000A756C056185866551056425618586C56F1
:1001A0009955185829561858D956EA5618581858B3
:1001B000CC55DD55EE551858FB562B577D564457F8
:1001C00018581858185855576057715782579357F1
:1001D000A457B557E967D9674868FD68CE6AC06A11
:1001E000DB6C0C6A8E6F886B8E6FDE6C8E6FEF6CC3
:1001F000916E8E6F8E6FC765096912692B69DB6C12
:100200001269D869DB69D6FEDCFEE3FEEAFEF8FE81
:100210000EFF16FFEDFFE6FFFCFFD6052A064203A0
:10022000E80210062605BA02A405B002FA059202F9
:10023000AA054C04D6025A05EA047A046A04680640
:10024000D4055C04D60386048604DE02DE02DE02E8
:10025000FA02FA02FA029A0536063606EA02AE03F6
:10026000F203C603FE02B005BC029204A6043E04DB
:1002700058040A030203820304051E04BE035E033E
:100280006C069E043A0416040E064E048005BA035A
:10029000E205AE04DC04F8024205F605B8024A05A0
:1002A00054054C03880226043E052C0366033006E1
:1002B0007804C0040603DE046605EE020205280386
:1002C0009802320488069A028A0658066E0532039E
:1002D000E003F2043A0556035E069A04EA05E602D4
:1002E000FA04200640040606820470031004600627
:1002F0006803BA044603A0040C03580358058E0291
:10030000A603A603A802A603A603A802A802A404A3
:100310007206A4047206A4047206A4049C029C0241
:100320009C029C029C029C029C029C029C021A065B
:10033000A4047206A4047206A4047206A40472063D
:10034000A4041A06A4049C029C027206A4049C0243
:100350007206A4047206A4041A06C003BA05C003F8
:10036000BA05C003BA05C003BA05C003BA05D20571
:10037000D205D205E203E203D205D205D205E2039B
:10038000E203A005A005A0058C028C02A005A00533
:10039000A0058C028C02D8034403D8034403D8037D
:1003A0004403D8034403D8036403FE050C05DA02B2
:1003B000A8047805E4051C06E405E405E4050A0440
:1003C0002A049A0388048804D0020605FE03D8058F
:1003D000AC05B605A803CE04340534059A06A4027C
:1003E000A402A402A402A402A4023405A402A4024A
:1003F000A402A4029A069A069A069A069A069A06F1
:10040000A402A402340534059A06036EDB363D9A35
:100410009999993DABAAAA2A3E000000803F084A5C
:10042000D73B3BCE016E84BCBFFDC12F3D6C743108
:100430009ABD56833DDA3D00C77F11BED9E4BB4C5F
:100440003E916BAAAABE000000803F072C7AA5BA95
:100450006CC590DA3B9365FC8BBC53F810FD3C56A1
:1004600092834DBD879D3AB63DCBC9BF5BBE73DA63
:100470000FC93F05A84CCDB2D44EB93836A9020CED
:1004800050B9918688083CA6AAAA2ABE000000801E
:100490003F08000000BE922449123EABAAAA2ABE21
:1004A000CDCCCC4C3E00000080BEABAAAAAA3E0038
:1004B000000000BF000000803F0000000000084175
:1004C00078D3BB4387D1133D190E3CC3BD4282ADE7
:1004D0002B3E68EC8276BED98FE1A93E4C80EFFFBF
:1004E000BE01C4FF7F3F0000000000000D94496B77
:1004F0000D9422390D9471180D94D0140D94400967
:100500000D94AD9E0D94BA160D94D5120D94655BA5
:100510000D94F1160D94F25D0D949B690D94714F3D
:100520000D9408430D94D4050D94810C0D94D38C37
:100530000D947B4C0D94C74C0D946C680D94C5388C
:100540000D9437210D94CB630D94A79F0D94BD6F2F
:100550000D94D4660D94B2420D94600A0D94889F58
:100560000D949F050D94A0110D94610E0D94A48A15
:100570000D94AF160D9484050D941B160D94C7A20F
:100580000D946A3F0D94BA190D94681B0D94691D62
:100590000D94BC390D9479440D9444110D94EF9A47
:1005A0000D941C9B0D9407870D9471120D94BF063A
:1005B0000D94555C0D94FA8D0D94D8160D94DA15A2
:1005C0000D9450820D948C1A0D948D840D94024ECE
:1005D0000D9446000D94FF150D94A77B0D94414C8E
:1005E0000D94328C0D943C250D94330E0D941917F7
:1005F0000D94A5160D94DF150D94F24A0D94111665
:100600000D9451650D943D160D9466200D94FB4B91
:100610000D9489090D9439160D941D4F0D944518AC
:100620000D944F0D0D9442180D94703F0D94B81811
:100630000D94F9780D9465170D94788C0D946C11C8
:100640000D94D6140D94FB170D948F150D94C08244
:100650000D94714C0D94490D0D9400170D944A2082
:100660000D941A910D94194D0D9491640D94901E52
:100670000D94EF740D9481450D94FB200D94406111
:100680000D9491220D943A000D94BA690D94F34E95
:100690000D947E6F0D94B1390D94EC160D94013EBE
:1006A0000D94BF950D9451970D9481180D948E4D16
:1006B0000D94374F0D94CF180D9486A10D945516B7
:1006C0000D947CA00D94D40E0D94BC690D94051767
:1006D0000D94B64E0D945E1E0D94BA1B0D94F680CB
:1006E0000D94814E0D9454140D948E630D946C07EB
:1006F0000D94FF390D94F85D0D948D1F0D94AD721E
:100700000D94B2190D9443160D9469350D94C613CA
:100710000D94420D0D942B720D943F9D0D94971ADC
:100720000D94ED0D0D946B120D94C3190D94035A95
:100730000D94BD200D94128E0D94A1780D94BD8D55
:100740000D94B51D0D946B6A0D94C0130D94CB667A
:100750000D947A9B0D94D92C0D942A6D0D9403164B
:100760000D94E2010D94631D0D94511B0D94EE1A2E
:100770000D94D8910D9491160D94028C0D945116F0
:100780000D9461690D940E1B0D94F3810D940D165B
:100790000D940B6C0D94007E0D94BE610D94337B13
:1007A0000D94D3880D94477A0D94B6830D943C072D
:1007B0000D94B8690D94EF8E0D9434790D94BA0AA6
:1007C0000D94304D0D947B690D9409790D941B5D4A
:1007D0000D94C9090D9419850D94B9250D94080E31
:1007E0000D94371C0D9409160D94897C0D94A72A3D
:1007F0000D945D000D94BB200D9423800D94339BCC
:100800000D94321E0D94FFA00D94871B0D94CF12F2
:100810000D94291A0D940A8E0D94F51A0D94C31394
:100820000D948F4E0D94091D0D94911A0D9463161D
:100830000D94770D0D942A550D941F410D944B1670
:100840000D94F5150D94417D0D941D360D94F616FD
:100850000D949E790D940E8E0D94D10E0D94A109D8
:100860000D94A4790D94A04C0D94D20E0D94981D66
:100870000D94F21A0D945F160D94F0800D942516C8
:100880000D94514E0D94E26C0D9440110D94470E51
:100890000D940F140D9422090D9402060D948716E1
:1008A0000D9409610D94BF250D94ECA00D941D7C51
:1008B0000D9429160D94903B0D9430070D94C23978
:1008C0000D9442810D941D840D9429800D94B60DD4
:1008D0000D9469160D94E5060D944F090D94089436
:1008E0000D94B1230D945B470D94EC1D0D946C5D3C
:1008F0000D940A170D94D1060D941A0E0D94E33839
:100900000D9412130D946B4E0D9414A10D94D515E6
:100910000D940C9B0D949C490D942A5D0D94171E0B
:100920000D9425120D941F160D940F610D94C8504F
:100930000D94970D0D94C04D0D949E2B0D9468163B
:100940000D940E4F0D946C190D94FB670D942E169B
:100950000D94FE8D0D94B87A0D947E0C0D949B161B
:100960000D94CD200D948F630D94766C0D94AE7A1A
:100970000D94CE5D0D94D54E0D948D1B0D944F00AE
:100980000D940F170D94A3900D94CE0E0D94C520C9
:100990000D947D090D94CC0E0D9447140D94B79BC6
:1009A0000D94EF4B0D9472110D949C140D94840EC4
:1009B0000D94391A0D943B170D94A0160D940F4CFD
:1009C0000D942F160D945A070D94E23E0D94651A5E
:1009D0000D9436500D94C7060D94694B0D94A012DA
:1009E0000D9447110D94604D0D948A630D94260962
:1009F0000D94F41D0D94194E0D9482110D94904692
:100A00000D94875A0D94504C0D9447160D943C9BB1
:100A10000D94C03E0D94303B0D94F68D0D94EF3047
:100A20000D94CB150D94A6390D94310D0D9467429C
:100A30000D94036A0D94FD990D9423090D949983E7
:100A40000D943C7F0D94931F0D943C170D947405E9
:100A50000D9499870D9455090D94A8700D9418055F
:100A60000D94D0200D94807F0D949E9F0D947A0C50
:100A70000D943F880D946E4D0D94C5450D94FB1655
:100A80000D9437A10D94B3160D9442900D940C2142
:100A90000D94FC3A0D94E2160D94890B0D94176E8B
:100AA0000D94A7090D94D0A60D94E7160D94008D12
:100AB0000D94524F0D94B8060D9412050D94CD0E61
:100AC0000D949A120D94AC7E0D941A640D94154CED
:100AD0000D94CB0E0D9434140D94D90E0D94F44C4A
:100AE0000D9459910D9490630D94851B0D943C4881
:100AF0000D94028E0D945F170D94305C0D94078653
:100B00000D948C160D94D40D0D94FB090D94563B49
:100B10000D9409740D94241C0D9419520D94867F24
:100B20000D94B4810D94DC1D0D943E6E0D941373E1
:100B30000D94186A0D94F2150D94C5770D94501EFE
:100B40000D9499690D946E870D948F050D94985DA1
:100B50000D94B27E0D94F7050D944C9B0D9466197F
:100B60000D9417160D94225D0D946D0A0D945F9BE4
:100B70000D94E81A0D9466690D94F1470D94730D68
:100B80000D94481A0D94DC010D94E2510D943A79BC
:100B90000D94744A0D9483090D94BD0A0D946798C1
:100BA0000D945F1A0D9479690D9412070D94090044
:100BB0000D94449B0D943E820D9482910D944B11A3
:100BC0000D94BE7A0D9496160D94278E0D9412AD49
:100BD0000D94B61D0D94D24D0D94BC1B0D9415149F
:100BE0000D94460F0D942E710D94961E0D94AA1619
:100BF0000D9487130D94B4050D9463000D94DE8D50
:100C00000D9455000D943C320D94BD190D94574E22
:100C10000D942B4B0D94001E0D9461110D948216B2
:100C20000D947B050D94086B0D94CE980D94BA82AB
:100C30000D94936E0D94FD670D94068E0D947B8A32
:100C40000D944B4E0D94C10A0D94B8200D94FA1AD0
:100C50000D94A5860D9421000D9464110D942F1C04
:100C60000D9414170D9449620D94477D0D94E4156D
:100C70000D94EF1D0D94D0940D9403020D944B6AC6
:100C80000D94D70E0D94C2920D944B640D94CB38F5
:100C90000D9416300D94DAA00D94760D0D94EA5D46
:100CA0000D94E4200D94E91A0D94BC1D0D94901A36
:100CB0000D94E94C0D94B8750D9432620D94A04DCD
:100CC0000D949F4E0D942D6F0D94CB720D94E47482
:100CD0000D94FB060D94B6190D9459160D94281D0C
:100CE0000D9466090D94AD670D94A6320D94B52050
:100CF0000D946C090D941F170D9418130D949E0DEF
:100D00000D940E080D94358A0D94DD210D94E6099D
:100D10000D94A64C0D94D54C0D941EA00D94756D9C
:100D20000D942A1B0D94C5870D94B69C0D94B41692
:100D30000D94C3100D94A49F0D94237C0D9425A1B4
:100D40000D94F4230D948A1A5265616368656420DA
:100D5000436F6D6D616E6420232569005265616388
:100D600068656420436F6D6D616E642023256900A2
:100D700044434D206261642068656164696E670068
:100D800043726173683A2044697361726D696E677A
:100D9000004D6F746F7220546573743A205361660E
:100DA00065747920537769746368004D6F746F724E
:100DB00020546573743A2076656869636C65206EAB
:100DC0006F74206C616E646564004D6F746F722087
:100DD000546573743A205243206E6F742063616CC3
:100DE000696272617465640061626C65640A0064C2
:100DF000697300656E000A436F6D4D6F7425643A28
:100E00002025342E32662C2025342E32662C2025C7
:100E1000342E32660A0043757272656E740054682F
:100E2000726F74746C65004F66660A004D6F746F64
:100E30007220436F6D703A20004D61672564206F0A
:100E400066663A2025342E34662C2025342E3466EE
:100E50002C2025342E34660A004D616720446563DA
:100E60003A2025342E34660A00436F6D7061737327
:100E70000A004661696C6564210043616C696272B5
:100E80006174696F6E205375636365737366756C07
:100E900021005448524F54544C450043555252453A
:100EA0004E54005354415254494E472043414C49FB
:100EB00042524154494F4E004E6F74206C616E6433
:100EC000656400746872206E6F74207A65726F00BA
:100ED0005243206E6F742063616C69627261746545
:100EE0006400636865636B20636F6D70617373008A
:100EF000636F6D706173732064697361626C6564A4
:100F00000A004672616D653A2051554144004172B4
:100F10006475436F707465722056332E322E312003
:100F2000282900434F4D5041535320494E495420E6
:100F30004552524F52004553432063616C20696E05
:100F40007075743A20257520257520257520257526
:100F500020206F75747075743A20257520257520D2
:100F600025752025750A004553432043616C3A20BE
:100F700070617373696E67207468726F74746C65E6
:100F8000207468726F75676820746F2045534373CF
:100F90002E0A00456E746572696E672045534320C2
:100FA00043616C3A20726573746172742041504DD4
:100FB0002E0A004C6F6720657261736520636F6D48
:100FC000706C6574650A0045726173696E67206CA8
:100FD0006F67730A006C6F61645F616C6C20746F83
:100FE0006F6B20256C7575730A00646F6E652E003B
:100FF0004669726D77617265206368616E67653AF4
:101000002065726173696E6720454550524F4D2EC1
:101010002E2E0A0042616420766172207461626C37
:10102000650042616420766172207461626C650AB9
:10103000002D004657205665723A2025640A004963
:101040006E697469616C6973696E672041504D2ED9
:101050002E2E000A526561647920746F20464C5927
:10106000200045524153494E47204C4F4753004EB4
:101070006F2064617461666C61736820696E73656A
:1010800072746564000A0A496E697420417264755D
:10109000436F707465722056332E322E312028290A
:1010A0000A0A467265652052414D3A2025750A00AC
:1010B0004C6F73742047505321004C6F772042616E
:1010C000747465727921005472696D20736176655C
:1010D00064006261726F6D657465722063616C6932
:1010E00062726174696F6E20636F6D706C65746598
:1010F0000043616C6962726174696E67206261723B
:101100006F6D657465720047524F554E44205354BD
:101110004152540041726D3A204779726F206361E9
:101120006C206661696C65640041726D3A205361A0
:1011300066657479205377697463680041726D3A0B
:10114000204C65616E696E670041726D3A2054688B
:10115000722062656C6F772046530041726D3A20B1
:10116000416C7420646973706172697479004172B2
:101170006D3A204D6F6465206E6F742061726D61F1
:10118000626C650050726541726D3A20486967680B
:10119000204750532048444F500050726541726DB3
:1011A0003A204261642056656C6F6369747900501F
:1011B000726541726D3A204E656564203344204665
:1011C00069780050726541726D3A2047505320474C
:1011D0006C697463680050726541726D3A204143D6
:1011E000524F5F42414C5F524F4C4C2F5049544339
:1011F000480050726541726D3A20436865636B2008
:10120000414E474C455F4D41580050726541726DEB
:101210003A20436865636B2046535F5448525F56DB
:10122000414C55450050726541726D3A2043683714
:1012300026436838204F70742063616E6E6F74208F
:1012400062652073616D650050726541726D3A2070
:10125000436865636B20426F61726420566F6C74E3
:101260006167650050726541726D3A204779726F0F
:101270002063616C206661696C6564005072654131
:10128000726D3A204779726F73206E6F74206865B3
:10129000616C7468790050726541726D3A204163E7
:1012A00063656C73206E6F74206865616C74687917
:1012B0000050726541726D3A20494E53206E6F7432
:1012C0002063616C6962726174656400507265418B
:1012D000726D3A20636865636B2066656E636500B6
:1012E00050726541726D3A20436865636B206D6191
:1012F00067206669656C640050726541726D3A20C2
:10130000436F6D70617373206F66667365747320CD
:10131000746F6F20686967680050726541726D3A3A
:1013200020436F6D70617373206E6F742063616C06
:10133000696272617465640050726541726D3A2031
:10134000436F6D70617373206E6F74206865616C9C
:101350007468790050726541726D3A20416C742056
:101360006469737061726974790050726541726D5D
:101370003A204261726F206E6F74206865616C74F0
:1013800068790050726541726D3A205243206E6F49
:10139000742063616C696272617465640046726195
:1013A0006D653A20515541440041726475436F7038
:1013B0007465722056332E322E3120282900504574
:1013C00052463A2025752F257520256C750A008D0B
:1013D000000100424154545F4D4F4E49544F52005A
:1013E00000000000A8000100424154545F564F4CD9
:1013F000545F50494E00000000A9000100424154D2
:10140000545F435552525F50494E000000008E0019
:101410000400424154545F564F4C545F4D554C5458
:101420000000008F000400424154545F414D505F62
:10143000504552564F4C54009100030042415454C1
:101440005F434150414349545900000000140002D9
:10145000004C4F475F4249544D41534B0000000040
:1014600000008059464D54000042426E4E5A000022
:10147000000000000000000000547970652C4C65ED
:101480006E6774682C4E616D652C466F726D617469
:101490002C436F6C756D6E7300000000000000003F
:1014A000000000000000000000000000000000003C
:1014B00000000000000000000081175041524D0064
:1014C0004E66000000000000000000000000000068
:1014D0004E616D652C56616C756500000000000062
:1014E00000000000000000000000000000000000FC
:1014F00000000000000000000000000000000000EC
:1015000000000000000000000000000000000000DB
:10151000822D475053000042494842634C4C656558
:10152000456566490000005374617475732C5469F5
:101530006D654D532C5765656B2C4E536174732C40
:1015400048446F702C4C61742C4C6E672C52656C47
:10155000416C742C416C742C5370642C474372732F
:101560002C565A2C540000831F494D5500004966E3
:1015700066666666660000000000000000005469B0
:101580006D654D532C477972582C477972592C4709
:1015900079725A2C416363582C416363592C41631F
:1015A000635A00000000000000000000000000007E
:1015B0000000000000000000000000000000844364
:1015C0004D534700005A00000000000000000000DA
:1015D00000000000004D6573736167650000000046
:1015E00000000000000000000000000000000000FB
:1015F00000000000000000000000000000000000EB
:1016000000000000000000000000000000000000DA
:10161000000000000085235243494E004968686875
:1016200068686868686868686868680054696D65B3
:101630004D532C43312C43322C43332C43342C4315
:10164000352C43362C43372C43382C43392C43312B
:10165000302C4331312C4331322C4331332C433144
:101660003400000000000000000000008617524314
:101670004F5500496868686868686868000000003D
:1016800000000054696D654D532C4368616E312C28
:101690004368616E322C4368616E332C4368616E1F
:1016A000342C4368616E352C4368616E362C436878
:1016B000616E372C4368616E380000000000000046
:1016C00000000088154241524F004966666366007B
:1016D0000000000000000000000054696D654D53DB
:1016E0002C416C742C50726573732C54656D702C86
:1016F00043527400000000000000000000000000E1
:1017000000000000000000000000000000000000D9
:1017100000000000000000000000890D504F5752EB
:1017200000494343480000000000000000000000A2
:101730000054696D654D532C5663632C5653657286
:10174000766F2C466C61677300000000000000009B
:101750000000000000000000000000000000000089
:101760000000000000000000000000000000000079
:10177000009129434D440000494848486666666622
:10178000666666000000000054696D654D532C4389
:10179000546F742C434E756D2C4349642C50726DFC
:1017A000312C50726D322C50726D332C50726D345E
:1017B0002C4C61742C4C6E672C416C740000000042
:1017C0000000000000000000921052414400004957
:1017D00042424242424848000000000000000054DB
:1017E000696D654D532C525353492C52656D5253BC
:1017F00053492C54784275662C4E6F6973652C5290
:10180000656D4E6F6973652C52784572726F727395
:101810002C46697865640000000000000000009418
:101820001F43414D000049484C4C656563634300CC
:1018300000000000000047505354696D652C47506C
:10184000535765656B2C4C61742C4C6E672C416C46
:10185000742C52656C416C742C526F6C6C2C5069FA
:101860007463682C596177000000000000000000DC
:101870000000000000000917435552520049684912
:101880006868686600000000000000000054696D90
:10189000654D532C5468724F75742C546872496EA0
:1018A000742C566F6C742C437572722C5663632CB7
:1018B00043757272546F7400000000000000000055
:1018C000000000000000000000000000000C144FA9
:1018D0004600000068684263636565000000000020
:1018E0000000000044782C44792C535175616C2C15
:1018F000582C592C526F6C6C2C5069746368000022
:1019000000000000000000000000000000000000D7
:1019100000000000000000000000000000000000C7
:1019200000000000052F4E54554E0049666666665D
:10193000666666666666000000000054696D654D67
:10194000532C44506F73582C44506F73592C506F64
:1019500073582C506F73592C4456656C582C445650
:10196000656C592C56656C582C56656C592C444145
:101970006363582C44416363590000042143545568
:101980004E004968686866666563636868000000C1
:10199000000054696D654D532C546872496E2C419A
:1019A0006E674273742C5468724F75742C44416C8A
:1019B000742C416C742C426172416C742C44534100
:1019C0006C742C53416C742C444352742C435274E9
:1019D00000000F194D414700004968686868686851
:1019E00068686800000000000054696D654D532C64
:1019F0004D6167582C4D6167592C4D61675A2C4FCA
:101A00006673582C4F6673592C4F66735A2C4D4F82
:101A10006673582C4D4F6673592C4D4F66735A00A0
:101A20000000000000000000000611504D00000002
:101A30004848496842484200000000000000000099
:101A40004E4C6F6E2C4E4C6F6F702C4D6178542C39
:101A5000504D542C4932434572722C494E534572B5
:101A6000722C494E41564572720000000000000081
:101A70000000000000000000000000000000000066
:101A80000117415454000049636363634343434374
:101A90000000000000000054696D654D532C446542
:101AA00073526F6C6C2C526F6C6C2C446573506964
:101AB0007463682C50697463682C4465735961774A
:101AC0002C5961772C45727252502C4572725961B3
:101AD0007700000000000003064D4F4445004D68AC
:101AE00000000000000000000000000000004D6F3A
:101AF00064652C546872437273000000000000009B
:101B000000000000000000000000000000000000D5
:101B100000000000000000000000000000000000C5
:101B200000000000000000000000000000000A03A8
:101B30005354525400000000000000000000000058
:101B40000000000000000000000000000000000095
:101B50000000000000000000000000000000000085
:101B60000000000000000000000000000000000075
:101B70000000000000000000000000000000000065
:101B800000000000000D0445560000004200000067
:101B90000000000000000000000000004964000098
:101BA0000000000000000000000000000000000035
:101BB0000000000000000000000000000000000025
:101BC0000000000000000000000000000000000015
:101BD0000000000000000000000000001406443176
:101BE0003600004268000000000000000000000015
:101BF00000000049642C56616C756500000000000F
:101C000000000000000000000000000000000000D4
:101C100000000000000000000000000000000000C4
:101C200000000000000000000000000000000000B4
:101C300000000015064455313600424800000000FF
:101C40000000000000000000000049642C56616C98
:101C500075650000000000000000000000000000AA
:101C60000000000000000000000000000000000074
:101C70000000000000000000000000000000000064
:101C8000000000000000000000001608443332008D
:101C90000042690000000000000000000000000099
:101CA0000049642C56616C7565000000000000005E
:101CB0000000000000000000000000000000000024
:101CC0000000000000000000000000000000000014
:101CD0000000000000000000000000000000000004
:101CE000001708445533320042490000000000004C
:101CF000000000000000000049642C56616C75650E
:101D000000000000000000000000000000000000D3
:101D100000000000000000000000000000000000C3
:101D200000000000000000000000000000000000B3
:101D30000000000000000000180844464C54004217
:101D400066000000000000000000000000000049E4
:101D5000642C56616C7565000000000000000000F6
:101D60000000000000000000000000000000000073
:101D70000000000000000000000000000000000063
:101D80000000000000000000000000000000001340
:101D900005455252000042420000000000000000D1
:101DA0000000000000005375627379732C45436F87
:101DB000646500000000000000000000000000005A
:101DC0000000000000000000000000000000000013
:101DD0000000000000000000000000000000000003
:101DE0000000000000009352010064004C3E02001D
:101DF000C2015E4D020084032F530A00D0028F50AF
:101E00000A0032006E770A000A0015270A008C00CB
:101E1000E1340A00E803BE7504002003162E010019
:101E20003200AB5421005A0032260200A4011B24C8
:101E30000200FA002D260200640066426400A4013C
:101E40005B4C0A0014007D3F0A0014009C25020030
:101E5000260298256400960094250200D002C84608
:101E60000200B60326240200C201D8330A002C0166
:101E7000C2330200DC002E58E803C800392C0A00E7
:101E800032000253595349445F53575F4D524556F0
:101E900000000000005D110000000001535953498B
:101EA000445F53575F5459504500000000015F11D3
:101EB000000020410253595349445F544849534D4F
:101EC0004156000000007060110000803F0253592D
:101ED0005349445F4D5947435300000000000071CF
:101EE000621100007F430253455249414C305F422A
:101EF00041554400000000003164110000E6420238
:101F000053455249414C315F424155440000000065
:101F100000326611000064420154454C454D5F4457
:101F2000454C41590000000000007368110000009A
:101F3000000252544C5F414C54000000000000006D
:101F4000000000A069110080BB4404524E47464E79
:101F5000445F4741494E0000000000001E6B11CD58
:101F6000CC4C3F0146535F424154545F454E414281
:101F70004C45000000C16F11000000000446535F93
:101F8000424154545F564F4C5441474500009770AE
:101F900011000028410446535F424154545F4D41B3
:101FA00048000000000000257411000000000146F8
:101FB000535F4750535F454E41424C45000000007F
:101FC000C378110000803F0146535F4743535F458C
:101FD0004E41424C4500000000C679110000803F90
:101FE000024750535F48444F505F474F4F440000F3
:101FF0000000237A1100006643014D41475F454EC2
:1020000041424C4500000000000000927C1100009D
:10201000803F01464C4F575F454E41424C450000C2
:1020200000000000967D110000000001535550454E
:10203000525F53494D504C4500000000009B7E11FB
:10204000000000000252544C5F414C545F46494E20
:10205000414C00000000A37F11000000000152531A
:1020600053495F50494E0000000000000000001876
:102070008111000080BF04525353495F52414E47C3
:1020800045000000000000002782110000A0400170
:1020900057505F5941575F4245484156494F52009A
:1020A000001A8611000000400352544C5F4C4F4907
:1020B000545F54494D4500000000A28C1100409C23
:1020C00045024C414E445F535045454400000000DA
:1020D000000000D99011000048420250494C4F5472
:1020E0005F56454C5A5F4D41580000001C9211004C
:1020F000007A430250494C4F545F414343454C5F83
:102100005A0000000030941100007A4302544852F3
:102110005F4D494E00000000000000000000B49632
:102120001100000243025448525F4D415800000024
:1021300000000000000000B5981100007A4401463C
:10214000535F5448525F454E41424C4500000000E9
:10215000B69A11000000000246535F5448525F5681
:10216000414C55450000000000B89B1100C073446D
:10217000025452494D5F5448524F54544C4500004C
:102180000000B99D110000E143025448525F4D49DF
:102190004400000000000000000000C29F11000089
:1021A000FA43025448525F445A0000000000000005
:1021B0000000000039A1110000C84201464C544DF6
:1021C0004F444531000000000000000000C8A3118A
:1021D0000000000001464C544D4F444532000000C1
:1021E000000000000000C9A4110000000001464CDE
:1021F000544D4F444533000000000000000000CA69
:10220000A5110000000001464C544D4F44453400D8
:102210000000000000000000CBA61100000000013B
:10222000464C544D4F44453500000000000000006E
:1022300000CCA7110000000001464C544D4F44450E
:1022400036000000000000000000CDA811000000D2
:10225000000153494D504C450000000000000000B3
:10226000000000CEA91100000000034C4F475F4260
:1022700049544D41534B0000000000003CAA11009E
:10228000805F44014553430000000000000000004F
:102290000000000000BAAE11000000000154554ECD
:1022A0004500000000000000000000000000BBAF7F
:1022B00011000000000254554E455F4C4F5700007E
:1022C00000000000000000BDB21100000000025438
:1022D000554E455F48494748000000000000000097
:1022E000BCB01100007A44014652414D4500000047
:1022F00000000000000000000095B4110000803FC5
:10230000014348375F4F50540000000000000000B8
:10231000000098B51100000000014348385F4F509D
:1023200054000000000000000000001FB611000073
:1023300000000141524D494E475F434845434B0021
:102340000000000020B7110000803F02414E474CC2
:10235000455F4D41580000000000000000220A14B3
:1023600000A08C450152435F4645454C5F525000EA
:102370000000000000002887110000C842014C4105
:102380004E445F5245504F534954494F4E0000341C
:10239000B8110000803F04454B465F434845434B1E
:1023A0005F5448524553480036B911CDCC4C3F04D8
:1023B00044434D5F434845434B5F5448524553485F
:1023C000003BBD11CDCC4C3F085243315F000000B3
:1023D00000000000000000000000AAC1112245001A
:1023E00000085243325F00000000000000000000BF
:1023F000000000ABDE1122450000085243335F00AD
:10240000000000000000000000000000ACFB1122F2
:10241000450000085243345F000000000000000047
:102420000000000000AD181222450000085243359C
:102430005F00000000000000000000000000AE355A
:1024400012B8450000085243365F0000000000004B
:1024500000000000000000AF5312B8450000085211
:1024600043375F0000000000000000000000000093
:10247000B07112B8450000085243385F00000000F8
:10248000000000000000000000B18F12B8450000FD
:1024900008524331305F00000000000000000000DF
:1024A0000000B2AD12B845000008524331315F0060
:1024B0000000000000000000000000B3CB12B8458F
:1024C00000000252435F53504545440000000000A5
:1024D00000000000C0E9120000F543044143524FE0
:1024E0005F52505F500000000000000000DDEB1262
:1024F00000009040044143524F5F5941575F5000E4
:10250000000000000000F4EF12000090400441437E
:10251000524F5F42414C5F524F4C4C00000000F262
:10252000F3120000803F044143524F5F42414C5F31
:102530005049544348000000F3F7120000803F0167
:102540004143524F5F545241494E455200000000F2
:10255000001BFB1200000040044143524F5F4558EE
:10256000504F000000000000000038FC129A9999BA
:102570003E08524154455F524C4C5F000000000041
:10258000000000DF0013CA2B000008524154455FD1
:102590005049545F0000000000000000E01E13CA14
:1025A0002B000008524154455F5941575F0000001D
:1025B0000000000000E13C13CA2B0000084C4F490A
:1025C0005445525F4C41545F000000000000E75A40
:1025D00013CA2B0000084C4F495445525F4C4F4ED4
:1025E0005F000000000000E87813CA2B00000854C8
:1025F00048525F524154455F000000000000000057
:10260000EC9613982B0000085448525F4143434511
:102610004C5F00000000000000F19A13CA2B00007C
:10262000084F465F524C4C5F000000000000000065
:102630000000EDB813CA2B0000084F465F50495404
:102640005F00000000000000000000EED613CA2B5F
:102650000000085354425F524C4C5F0000000000E1
:1026600000000000E2F813982B0000085354425F6A
:102670005049545F000000000000000000E3FC131C
:10268000982B0000085354425F5941575F000000E7
:10269000000000000000E40014982B0000085448DB
:1026A000525F414C545F000000000000000000EB4E
:1026B0000414982B000008484C445F4C41545F00C0
:1026C0000000000000000000E5F413982B00000853
:1026D00052454C41595F000000000000000000001E
:1026E000000DFE05CE42000008434F4D50415353AC
:1026F0005F000000000000000000930E0FC23200D7
:102700000008494E535F0000000000000000000078
:1027100000000003A80EAC3F000008494E41565F80
:10272000000000000000000000000000647F08FDC1
:102730003D00000857504E41565F00000000000069
:102740000000000000654406922C00000843495236
:10275000434C455F00000000000000000000680DD1
:1027600006472C0000084154435F000000000000B1
:1027700000000000000000660008082A0000085061
:102780004F53434F4E5F0000000000000000000068
:10279000671D07B72A0000085352305F0000000091
:1027A0000000000000000000006EF20A0E29000088
:1027B000085352315F0000000000000000000000DC
:1027C00000006FC90B0E29000008414852535F00FA
:1027D00000000000000000000000009FE20C732DCC
:1027E000000008424154545F000000000000000057
:1027F0000000000024B1098F310000084252445FFC
:10280000000000000000000000000000000FE70AC8
:102810008932000008474E445F00000000000000BD
:102820000000000000000B0E10632F00000847504E
:10283000535F0000000000000000000000000010D6
:10284000B310163C00000853434845445F000000A5
:1028500000000000000000000C4811614300000867
:1028600046454E43455F00000000000000000000A8
:102870000045BB05E92A000008475053474C49541E
:1028800043485F00000000000000469310613C00D8
:1028900000084241524F474C5443485F000000003B
:1028A00000000047F60FC72F0000084D4F545F008F
:1028B0000000000000000000000000005A330A6C15
:1028C0004100000852434D41505F000000000000ED
:1028D0000000000000C7E80A51420000084D4953BB
:1028E0005F000000000000000000000000002AA0BF
:1028F0000CF6400000000000000000000000000096
:1029000000000000000000000000000000000200C5
:102910005241575F53454E53000000000000000035
:102920000066000000000002014558545F53544106
:1029300054000000000000000000680000000000DB
:10294000020252435F4348414E0000000000000075
:102950000000006A000000000002035241575F437C
:1029600054524C0000000000000000006C00000009
:1029700000000204504F534954494F4E00000000DC
:1029800000000000006E00000000000205455854E1
:102990005241310000000000000000000000700003
:1029A0000000000002064558545241320000000069
:1029B0000000000000000072000000000002074557
:1029C0005854524133000000000000000000000095
:1029D0007400000000000208504152414D530000B5
:1029E0000000000000000000007600000000000071
:1029F000FF000000000000000000000000000000D8
:102A000000000000000000000400524154455F52E5
:102A1000505F4D4158000000000000260000A08CCF
:102A2000460401524154455F595F4D415800000032
:102A3000000000002A0000A00C460402534C455739
:102A40005F5941570000000000000000002E000008
:102A5000007A440403414343454C5F52505F4D416B
:102A60005800000000003200000000000404414350
:102A700043454C5F595F4D4158000000000000364F
:102A800000000000000105524154455F46465F4585
:102A90004E414200000000003A000000000000FF2C
:102AA0000000000000000000000000000000000026
:102AB0000000000000000004005448525F484F56D8
:102AC0004552000000000000000017000000E14334
:102AD00000FF0000000000000000000000000000F7
:102AE0000000000000000000000100454E41424C83
:102AF000450000000000000000000000020000008F
:102B00000000010154595045000000000000000081
:102B10000000000000030000004040010241435457
:102B2000494F4E00000000000000000000000400BB
:102B30000000803F0403414C545F4D4158000000A9
:102B40000000000000000005000000C8420404521C
:102B500041444955530000000000000000000000FF
:102B600009000000964304054D415247494E0000BC
:102B70000000000000000000000D00000000400008
:102B8000FF00000000000000000000000000000046
:102B900000000000000000000400500000000000E1
:102BA0000000000000000000000000000000000025
:102BB0000000FF0000000000000000000000000016
:102BC00000000000000000000000040050000000B1
:102BD00000000000000000000000000000000000F5
:102BE0000000000401490000000000000000000097
:102BF0000000000000000400000000000402440087
:102C000000000000000000000000000000000008BC
:102C100000000000000203494D4158000000000080
:102C200000000000000000000C000000000000FF99
:102C30000000000000000000000000000000000094
:102C400000000000000000040052414449555300B8
:102C500000000000000000000000070000007A44AF
:102C60000401524154450000000000000000000033
:102C70000000000B000000A04100FF000000000069
:102C80000000000000000000000000000000000044
:102C900000000400535045454400000000000000BF
:102CA00000000000000F000000FA430401524144FC
:102CB00049555300000000000000000000001B0008
:102CC00000004843040253504545445F55500000FE
:102CD00000000000000000130000007A43040353CA
:102CE000504545445F444E000000000000000000D5
:102CF00017000000164304044C4F49545F535045DD
:102D000045440000000000000007000000FA4304F2
:102D100005414343454C0000000000000000000056
:102D200000001F000000C8420406414343454C5FB9
:102D30005A0000000000000000000023000000C84E
:102D40004204074C4F49545F4A45524B0000000073
:102D5000000000000B0000007A4400FF00000000AB
:102D60000000000000000000000000000000000063
:102D700000000004024750535F4741494E000000E5
:102D800000000000000022000000803F01034750C7
:102D9000535F555345000000000000000000002C68
:102DA000000000803F04045941575F5000000000BC
:102DB00000000000000000001A00CDCC4C3E0405CD
:102DC00052505F50000000000000000000000000B2
:102DD000001E00CDCC4C3E010657494E445F4D418C
:102DE000580000000000000000002D00000000005E
:102DF00005085452494D000000000000000000008A
:102E000000000041000000000001094F5249454EFA
:102E1000544154494F4E0000000000002E000000B5
:102E20000000040A434F4D505F42455441000000EA
:102E300000000000002800CDCCCC3D010B475053D2
:102E40005F4D494E534154530000000000002F00D5
:102E50000000C04000FF0000000000000000000073
:102E60000000000000000000000000000050414E83
:102E700049433A2041505F4261726F3A3A7265614C
:102E80006420756E7375636365737366756C206615
:102E90006F72206D6F7265207468616E20353030FE
:102EA0006D7320696E2041505F4261726F3A3A63E0
:102EB000616C696272617465205B335D0D0A00505C
:102EC000414E49433A2041505F4261726F3A3A7233
:102ED00065616420756E7375636365737366756C85
:102EE00020666F72206D6F7265207468616E203588
:102EF00030306D7320696E2041505F4261726F3ACD
:102F00003A63616C696272617465205B325D0D0ABF
:102F10000050414E49433A2041505F4261726F3A3E
:102F20003A7265616420756E737563636573736669
:102F3000756C20666F72206D6F7265207468616EAB
:102F4000203530306D7320696E2041505F426172D0
:102F50006F3A3A63616C696272617465205B315DDE
:102F60000D0A0004024142535F5052455353000082
:102F70000000000000000C000000000004035445A5
:102F80004D5000000000000000000000000000089C
:102F900000000000000104414C545F4F4646534579
:102FA000540000000000000010000000000000FFBE
:102FB0000000000000000000000000000000000011
:102FC000000000000000000100454E41424C450059
:102FD0000000000000000000000003000000803F2F
:102FE00004014449535400000000000000000000A8
:102FF00000000004000000FA430402414343454C32
:103000000000000000000000000000000800008038
:10301000BB4400FF000000000000000000000000B2
:10302000000000000000000000000050414E494335
:103030003A2041505F4261726F5F4D5335363131F6
:1030400020746F6F6B206D6F7265207468616E20E5
:10305000313030306D7320746F20696E697469612E
:103060006C697A650050414E49433A2041505F42B5
:1030700061726F5F4D53353631313A206661696C4C
:10308000656420746F2074616B652073657269617B
:103090006C2073656D6170686F726520666F722059
:1030A000696E69740050414E49433A2041505F4275
:1030B00061726F5F4D53353631313A204E554C4C6D
:1030C0002073657269616C20647269766572005064
:1030D000414E49433A206661696C656420746F20F3
:1030E00074616B65205F7370695F73656D2031304B
:1030F000302074696D657320696E206120726F776E
:103100002C20696E2041505F4261726F5F4D5335D4
:103110003631313A3A5F7570646174650050414EE2
:1031200049433A2041505F4261726F5F4D533536DB
:10313000313120646964206E6F7420676574207675
:10314000616C6964205350492073656D61706872C9
:103150006F65210050414E49433A2041505F426122
:10316000726F5F4D533536313120646964206E6F64
:1031700074206765742076616C696420535049201F
:103180006465766963652064726976657221000101
:10319000004D4F4E49544F52000000000000000007
:1031A00000000000000000000101564F4C545F5029
:1031B000494E000000000000000000010000005027
:1031C000410102435552525F50494E000000000039
:1031D000000000000200000040410403564F4C5420
:1031E0005F4D554C54000000000000000003009AA1
:1031F0009921410404414D505F504552564F4C5463
:103200000000000000000700000088410405414D57
:10321000505F4F4646534554000000000000000B2D
:103220000000000000030643415041434954590047
:1032300000000000000000000F0000404E450107A4
:10324000564F4C54325F50494E00000000000000C1
:10325000001300000080BF0408564F4C54325F4DED
:10326000554C540000000000000014000000803F96
:1032700000FF00000000000000000000000000004F
:1032800000000000000000000000FF00000000003F
:10329000000000000000000000000000000000002E
:1032A00000004661696C656420746F206765742056
:1032B000484D43353834332073656D6170686F72E3
:1032C000650005014F4653000000000000000000AB
:1032D0000000000000170000000000040244454305
:1032E00000000000000000000000000000002300BB
:1032F0000000000001034C4541524E000000000058
:103300000000000000000008000000803F0104559C
:103310005345000000000000000000000000000015
:1033200027000000803F01054155544F44454300AC
:1033300000000000000000000028000000803F01A5
:10334000064D4F54435400000000000000000000F0
:103350000000A4000000000005074D4F54000000CD
:103360000000000000000000000000A500000000B8
:103370000001084F5249454E540000000000000073
:1033800000000000160000000000010945585445E7
:10339000524E414C000000000000000000290000D7
:1033A00000000000FF00000000000000000000001E
:1033B000000000000000000000000000801140112B
:1033C00040713273343332131211321112933413A9
:1033D000145352310021030406080B2D0A09070576
:1033E000040241C011C051125354731211125152B0
:1033F0007314733231002102040506070809080618
:1034000007062403020102000120012011C001115E
:10341000003132137413143312F112D3125100011C
:10342000022325060746442342210001E0A0313251
:1034300013B4331112110011201100523312133240
:10344000112001222485042304020342410001E0EB
:10345000A0511214131513153413325140012011C9
:103460005213323100012223040504050423010311
:1034700082612001E011801132135415143332316E
:103480004021020100317231410223442302012212
:1034900001220102614001A0118051121413341560
:1034A0001433123140010201030201205211122093
:1034B000212243042241022102A10001E020114007
:1034C000515374133211402102030203020100110F
:1034D00012113200114122232221004102A1800158
:1034E0006011601100113233741312114001620334
:1034F00002032131121112114001020102030201E3
:10350000000100E121E0A0112012117334333120B9
:103510000162036240121112110011010001020147
:10352000220001200100E1C00100118011001211F0
:103530001312141334522001E2022120311211001F
:10354000110001002102010001402100024100019F
:10355000E0601140111211131214131413321100F0
:103560002122034201022100010011001211001169
:1035700020010041600100C10001401120016011E3
:10358000405112131213143312310001420322016D
:103590000221000140110031001100010001000171
:1035A000A0E10001A00180112031529312110021ED
:1035B000C221002140310011201100010001E0E191
:1035C0006001E01100117273123100214203010207
:1035D0000102202140110011201160014011600101
:1035E0000001022102000120014001A0513213120A
:1035F000533211200102018221002100010011003B
:1036000031E00011001160210001020102010100FE
:1036100021200100016011001152131214135211E4
:10362000004182010200010021401100110011A09F
:10363000110031001120812201010002010021004E
:1036400001601100521312131413323101000201F0
:10365000220142010021000100011120110011206E
:1036600011407100114001022102010201002102FA
:103670002100010001001100121112331234133223
:1036800011200102014201220100410001601120CC
:1036900011001100110051123120610201220200BB
:1036A0000201028120110012117334133211004102
:1036B000020182010061000180110011009132318C
:1036C000402142010202006261401152141354333E
:1036D000310041820122000102004100016091128B
:1036E00011525120012201030102020082610051A6
:1036F000335415143331002102012203424102A147
:10370000803192133231004122030201030022036F
:1037100022010201401112339533310100220103CD
:1037200042032221220102610001110011521312F1
:10373000531231004122032203002302030201023B
:1037400021203213141615171615331120016203A8
:10375000020302032201A241401112531413141355
:1037600032110100020102030203020200022302DD
:1037700003222120321416371817151312110021B5
:103780002203024302430103020382212011121388
:103790001415341514321100016223020300430290
:1037A0000342012012131518193A1715131100219D
:1037B0000203026304E30203020302010240121344
:1037C0001415171516341220212243020300A322D8
:1037D0000100111215181C1E1D19161311000201EB
:1037E0000302030423040324030443042304030205
:1037F0000342201112141517183615133121020334
:1038000002230203241E191512100E0C0B0A0909BB
:103810000908080807060605040404030404040054
:10382000000000000000000000272621232523259A
:10383000242722292A2A1C27282B33322725222C09
:1038400033313037000000000000000000000000AD
:103850000001FFFFE000000000000001FFFFF0009A
:10386000000000000001FFFFF80000000000000160
:10387000FFFFFE00000000000003FFFFFF0000004C
:1038800000000003FFFFFFF000000000000FFFFF3B
:10389000FFFE00000003FFFFFC000007FC00007FAC
:1038A000FFFFFC000000000000001FFFFE00000002
:1038B000000096918C87827D78736E69645F5A559B
:1038C000504B46413C37322D28231E19140F0A0550
:1038D0000004090E13181D22272C31363B40454A9F
:1038E0004F54595E63686D72777C81868B90959A90
:1038F0009FA4A9AEB3AFAAA5A09B968F89837E781B
:10390000736E69645F5A55504B47423E3935302CCF
:1039100027231F1B16120E09050103070B1014198C
:103920001D22262B2F34393D42474C51565B606592
:103930006B70757B80868C92979DA3A9AFB2ACA665
:10394000A09A948F827C76706B65605C57524E4A69
:1039500046413D3936322E2A26221F1B1713100CE2
:1039600008040102060A0E12161A1E22262B2F33F5
:10397000383D41464B4F54595E64696F747A808775
:103980008D949BA2AAB1AEA69F979089826F68631F
:103990005E5955514D4946423F3C3835322E2B2811
:1039A00024211E1A1714100D0A0603000306090D20
:1039B0001014181C2024282C3034393D41464A4F1D
:1039C00054585D62676D737980878F98A2ACB0A5FB
:1039D0009A90867D766F55514D4A4744413F3C3A17
:1039E000383533312E2B292623201D1A1713100D9D
:1039F0000A070401010306090D1013171A1E2226D7
:103A00002A2E32363A3E42464A4E53575B5F64692D
:103A10006E757C85909FB2A08D7D7067605A553E13
:103A20003C3A393736343332302F2E2C2A2927248A
:103A3000221F1C191613100D0A07040200030508A3
:103A40000A0D1013161A1D2125292D3135383C4039
:103A500043464A4D505356595B5E6165696F826DAE
:103A6000544D4A474442403E2E2E2D2C2C2B2A2AC0
:103A70002929282726252423211F1C1A1714100D55
:103A80000A07040101030507090C0E1013161A1D7D
:103A90002124282C3033373A3D40424447484A4A93
:103AA0004B4A48443D3019021621282B2D2E2F2E2B
:103AB0002E06090C0F121517191B1C1B1811040ECA
:103AC0002231383C3C3C3A3835322F2B2824201CFC
:103AD0001915110D09050102060A0E1115181C1FF2
:103AE000222527292A2B2B29262119110800040811
:103AF0000A0A0A0807040200030616181A1C1E20E8
:103B0000211F1712516063625F5D5956524E4A463B
:103B1000423E3935312C2824201B17130E0A06018A
:103B200002060A0F13171B1F23262A2D313437399B
:103B30003C3D3F3F3E3D39352F28211C17151313BF
:103B4000131416A8ADB2B0ABA6A19C97928D888332
:103B50007E79746F6A65605B56514C47423D3833DD
:103B60002E29241F1A15100B060103080D12171C0D
:103B700021262B30353A3F44494E53585D62676CDD
:103B800071767B80858A8F94999EA3A8204D544B93
:103B90002000204D544B313920002075626C6F7825
:103BA0002000B56206010300010601124F245055A2
:103BB00042582C34312C312C303030332C303030D2
:103BC000312C33383430302C302A32360D0A245020
:103BD00047434D442C31362C302C302C302C302C9B
:103BE000302A36410D0A24505352463130302C30A1
:103BF0002C33383430302C382C312C302A33430DD0
:103C00000A00C01200000096000000C2010000E19E
:103C100000008025000001005459504500000000BC
:103C200000000000000000000002000000803F01D2
:103C3000024E415646494C544552000000000000D7
:103C4000000003000000004100FF00000000000031
:103C50000000000000000000000000000000000064
:103C6000000100454E41424C4500000000000000AC
:103C70000000000003000000803F0401524144495D
:103C80005553000000000000000000000004000088
:103C90000048430402414343454C0000000000003B
:103CA000000000000000080000007A4400FF00004F
:103CB0000000000000000000000000000000000004
:103CC000000000000024504D544B3232302C323072
:103CD000302A32430D0A24504D544B3331332C31AA
:103CE0002A32450D0A24504D544B3330312C322AA0
:103CF00032450D0A24504D544B3339372C302A327B
:103D0000330D0A004572726F723A2041505F48418C
:103D10004C5F4156523A3A415652416E616C6F6760
:103D2000496E206F7574206F66206368616E6E65E2
:103D30006C730D0A0050414E49433A2053504930AC
:103D400020777269746520636F6C6C6973696F6E3C
:103D50000050414E49433A2053504930207472611B
:103D60006E7366657220636F6C6C6973696F6E0049
:103D7000474F494E4720444F574E20464F5220410F
:103D8000205245424F4F540D0A0050414E49433A8C
:103D9000207363686564756C65723A3A73797374FD
:103DA000656D5F696E697469616C697A65642063C9
:103DB000616C6C65646D6F7265207468616E206FF4
:103DC0006E63650050414E49433A20415652536557
:103DD0006D6170686F72653A3A74616B65207573D6
:103DE00065642066726F6D20696E73696465207406
:103DF000696D65722070726F63657373000401549E
:103E0000435F58590000000000000000000000005F
:103E1000130000002040040254435F5A00000000D9
:103E200000000000000000000017000000A040009B
:103E3000FF00000000000000000000000000000083
:103E400000000000000000006779726F5B25755D5F
:103E500020646964206E6F7420636F6E766572678C
:103E6000653A20646966663D2566206470730A00C1
:103E70002A00496E6974204779726F0020002A0079
:103E8000496E697420416363656C0043616C6962CB
:103E9000726174696F6E204641494C45440A004383
:103EA000616C6962726174696F6E207375636365BA
:103EB000737366756C0A005363616C696E675B258A
:103EC000755D3A20252E326620252E326620252E5D
:103ED00032660A004F6666736574735B25755D3ADA
:103EE00020252E326620252E326620252E32660AA7
:103EF00000506C6163652076656869636C65202598
:103F00005320616E6420707265737320616E792036
:103F10006B65792E0A006F6E2069747320424143ED
:103F20004B006E6F7365205550006E6F73652044B3
:103F30004F574E006F6E20697473205249474854A2
:103F40002073696465006F6E20697473204C454668
:103F5000542073696465006C6576656C004E6F2053
:103F6000494E53206261636B656E647320617661B4
:103F7000696C61626C6500546F6F206D616E7920B1
:103F8000494E53206261636B656E647300546F6FBA
:103F9000206D616E7920616363656C7300546F6F8F
:103FA000206D616E79206779726F73000200505244
:103FB0004F445543545F4944000000000000001F77
:103FC000000000000005014143435343414C000001
:103FD00000000000000000002100000000000502B9
:103FE0004143434F464653000000000000000000DC
:103FF000002D000000000005034759524F4646536C
:104000000000000000000000000039000000000077
:1040100001044D5055364B5F46494C544552000003
:1040200000000045000000000000FF00000000004C
:104030000000000000000000000000000000000080
:1040400000004661696C656420746F20626F6F7454
:10405000204D50553630303020352074696D6573F1
:10406000004D5055363030303A20556E61626C65E7
:1040700020746F206765742073656D6170686F725E
:10408000650056616C75657320646F65736E277487
:10409000206D617463683B207772697474656E3A51
:1040A00020253032783B20726561643A2025303219
:1040B0007820006661696C656420746F20626F6FA0
:1040C00074204D50553630303020352074696D6580
:1040D000730054696D6564206F757420776169742D
:1040E000696E6720666F72207573657220726573E2
:1040F000706F6E7365000200544F54414C00000015
:1041000000000000000000000005000000000001A9
:104110000152455354415254000000000000000079
:10412000000007000000000000FF00000000000089
:10413000000000000000000000000000000000007F
:104140000041505F4D6F746F72733A206661696C05
:10415000656420746F206372656174652074687291
:104160006F74746C65206375727665000101544349
:1041700052565F454E41424C450000000000002E63
:10418000000000803F0102544352565F4D494450A5
:1041900043540000000000002F00000050420103C3
:1041A000544352565F4D41585043540000000000A4
:1041B0000030000000BA4202055350494E5F4152A0
:1041C0004D454400000000000000310000008C421A
:1041D00000FF0000000000000000000000000000E0
:1041E00000000000000000000000010203040506BA
:1041F0000742616420636F6E76657273696F6E202B
:104200007479706520272553270A00556E6B6E6FF1
:10421000776E20636F6E76657273696F6E202725E7
:1042200053270A0025733A2025660A0025733A2091
:10423000256C640A0025733A2025640A0025733A28
:104240002025640A00454550524F4D2066756C6C20
:10425000000100524F4C4C00000000000000000024
:104260000000000000000000803F0101504954435D
:1042700048000000000000000000000000010000F5
:1042800000004001025448524F54544C4500000075
:1042900000000000000003000000404001035941FD
:1042A00057000000000000000000000000000002B5
:1042B000000000804000FF0000000000000000003F
:1042C00000000000000000000000000000000100ED
:1042D00050494E00000000000000000000000000F7
:1042E00000000000005041010150494E3200000022
:1042F000000000000000000000000100000080BF7E
:1043000000FF0000000000000000000000000000AE
:104310000000000000000000005363686564756CD5
:104320006572206F76657272756E207461736B5B57
:1043300025755D202825752F2575290A005363688A
:104340006564756C657220736C6970207461736B41
:104350005B25755D202825752F25752F2575290A64
:1043600000010044454255470000000000000000E5
:104370000000000000000000000000FF000000003E
:10438000000000000000000000000000000000002D
:1043900000000050414E49433A2044617461466C2C
:1043A0006173682053504944657669636544726956
:1043B0007665722073656D6170686F7265206973D0
:1043C000206E756C6C0050414E49433A2044617434
:1043D00061466C6173682053504944657669636532
:1043E000447269766572206E6F7420666F756E64B4
:1043F00000666C6967687420706C616E207265631A
:10440000656976656400666C6967687420706C61C4
:104410006E207570646174652072656A6563746589
:104420006400327C8900EDD96877000000590000F3
:10443000000000000000D69FDCA81817AA90437364
:1044400027F6B968EDF4DED409FEE61C1C84DDE82D
:104450000B992927000000000F03000000000099BD
:10446000B7335276941500F37C000026149E988F83
:104470000000006A31161D0CF1E900E7B73F360075
:10448000000000000000AF669ED0385DD36C20B9FC
:104490005400007C77044C80387486EDCBFA57CBFF
:1044A000DC19E2001DDF5506E5CB0100000000002D
:1044B00000000000002A310086DBD0BC5416131522
:1044C00086004E44BD7F9A15159001EA49B51653F2
:1044D000A78AEAF02FBD34AE000000000000000003
:1044E00000000000000000000000000000000000CC
:1044F00000000000000000000000000000000000BC
:1045000000000000000000000000000000000000AB
:104510000000000000000000000008CC31AA2C536D
:104520002E0002004D494E00000000000000000077
:1045300000000000000A0000808944020154524932
:104540004D000000000000000000000000000C0012
:104550000080BB4402024D415800000000000000F2
:10456000000000000000000E000080ED4401035236
:1045700045560000000000000000000000000000A0
:1045800010000000803F0205445A000000000000B7
:10459000000000000000000000110000000000000A
:1045A000FF0000000000000000000000000000000C
:1045B00000000000000000000800000000000000F3
:1045C0000000000000000000000000000022450084
:1045D00000010146554E4354494F4E000000000073
:1045E000000000001D000000000000FF00000000AF
:1045F00000000000000000000000000000000000BB
:10460000000000000000000006030000067609021A
:1046100000760F5A000100D00F30000000000000AB
:104620000503000005CA090200CA0E9600010060D9
:104630000FA0002C76D888674F0823C1DFAE59B190
:10464000B796E5E453C63A51997696E6C284268930
:104650008C9B62407C6FFCBC9C9F40BAA56FA59070
:10466000055A2A5C936B6C676DC11BE0E40D47F53E
:1046700020E6B5D0ED902E009435770080841E00A2
:1046800000204E000000C833333333986E1283414C
:10469000EF8D21893BE655CFFEE6DBD1844B38F721
:1046A0007C1D90A4BBE4243284725E8100C9F1ECCD
:1046B000A1E53DDCDFE1E3E6E8EBEDEFF2F4F7F94D
:1046C000FCFE000305080A0C0F111416181B1D2010
:1046D0002224276E616E00696E66000102102020A0
:1046E0000808102040102040800201020108040246
:1046F00001010204081020408080402010080402BC
:104700000180040201804020100804020108040214
:10471000010102040810204080010204081020401A
:104720008040050505050705080808080202020281
:104730000A0A08080404040401010101010101013D
:104740000303030303030303040707070C0C0C0C08
:104750000C0C0C0C020202020606060606060606F1
:104760000B0B0B0B0B0B0B0B050000200023002683
:104770000029002C002F0032000001000003010678
:1047800001090100002200250028002B002E003125
:1047900000340002010000050108010B01000021A6
:1047A00000240027002A002D003000330001010002
:1047B00000040107010A0100828BF9EB98068003CF
:1047C0006A06E202F003E603660638031A8F112434
:1047D0001FBECFEFD1E2DEBFCDBF00E00CBF15E0C2
:1047E000A0E0B2E0E8E6F1E603E00BBF02C007900C
:1047F0000D92A634B107D9F716E1A6E4B5E001C0E1
:104800001D92AA3CB107E1F717E4CCECD7E400E035
:1048100006C022970109FE010BBF0F94BDAEC83B35
:10482000D10780E00807A9F70E94657D0D94A3B029
:104830000C9400000895E0910E10F0910F10008488
:10484000F185E02D8EE090E1199508950895A6E098
:10485000B0E0EDE2F4E20D942FAEBE016F5F7F4F4A
:1048600096E0FB0111929A95E9F793EA998395E90D
:104870009A8393E09B838C8380919D1190919E11EC
:104880009E838D83E0911411F09115110084F185C0
:10489000E02D46E050E084E191E119952696E2E0B2
:1048A0000D944BAEA5E0B0E0E8E5F4E20D942FAE38
:1048B000DE01119695E0FD0111929A95E9F793EAD0
:1048C000998395E99A8393E19B838C836D83E0912F
:1048D0001411F09115110084F185E02D45E050E0B0
:1048E000BD0184E191E119952596E2E00D944BAE6E
:1048F000A0914814B0914914ED91FC911197028058
:10490000F381E02DCD01199508958091481490917F
:104910004914DC01ED91FC910480F581E02D19959D
:1049200008958091481490914914DC01ED91FC9117
:104930000680F781E02D199508958B3039F020F429
:104940008350853028F402C0803111F481E008954D
:1049500080E00895823010F481E0089580E00895A9
:104960008091EE0A80FF18C08091C0109091C11014
:10497000039794F08091951081FD0EC08091E00A1C
:1049800083FD0AC090918C0590FD06C085FB8827A9
:1049900080F991E08927089580E0089520E030E0D3
:1049A000FC01E20FF31F12821382148215822C5F26
:1049B0003F4F2C313105A1F7FC01168E0895FC0103
:1049C000968D81E0890F868FDF0124E0929FA00DF4
:1049D000B11D112412964D935D936D937C931597A1
:1049E000873008F0168ECB01BA010895A7E1B0E038
:1049F000ECEFF4E20D942DAE8E010F5F1F4F87E1B7
:104A0000D8011D928A95E9F783EA898385E98A832B
:104A100081E08B838091481490914914DC01ED91E1
:104A2000FC910480F581E02D19956C837D838E8344
:104A30009F8360913F087091400880914108909158
:104A400042080F944CA9798768878091F00C909167
:104A5000F10C9B878A87609143087091440880918C
:104A60004508909146080F944CA97D876C878091EA
:104A7000F40C9091F50C9F878E8760914708709198
:104A800048088091490890914A080F9451A9798B60
:104A9000688B8091F80C9091F90C9B8B8A8B82EE3D
:104AA0009CE00E9413D320E030E048EC52E40F94E5
:104AB000AAAB0F9451A97D8B6C8B82EE9CE00E9477
:104AC0004CD320E030E048EC52E40F94AAAB0F94B2
:104AD00051A97F8B6E8BE0911411F0911511008418
:104AE000F185E02D47E150E0B80184E191E11995AD
:104AF0006796E4E00D9449AECF93DF93EC0180918B
:104B0000F20A882329F0BE0182EF9AE00F949D906B
:104B10008091C90B882329F0BE0189EC9BE00F949A
:104B20009D90DF91CF9108958CE190E0E5CF0895BD
:104B300080E090E0E1CF08958091F20A882331F07F
:104B400060E070E082EF9AE00F94BC928091C90B14
:104B5000882331F060E070E089EC9BE00D94BC921A
:104B60000895A0E0B0E0E7EBF5E20D9429AE809166
:104B7000960990919709A091980960916911709197
:104B80006A119B01442737FD4095281739074A07CA
:104B900044F49C014A2F552747FD5095CA01B9019D
:104BA00004C0882777FD8095982F0F947FA98B01EB
:104BB000D82FC92F8BEB95E00E947DB380FF26C0D4
:104BC0002091C8053091C9054091CA055091CB0587
:104BD0006091C0057091C1058091C2059091C30597
:104BE0000F94FFA720E030E048EC52E40F94AAAB0A
:104BF0006B017C019B01AC01B8018D2F9C2F0F94A0
:104C0000DDA887FD03C08601DE2DCF2DB8018D2FD5
:104C10009C2FCDB7DEB7E8E00D9445AE0F931F9300
:104C2000CF93DF93EC018B018091F20A882331F05E
:104C3000AB01BE0182EF9AE00F9453918091C90BB2
:104C4000882331F0A801BE0189EC9BE00F945391B9
:104C5000DF91CF911F910F91089587E391E10D941A
:104C60002867089580917C11882321F08EE09FE0D1
:104C70000C940EEF0895A8E0B0E0E1E4F6E20D94A4
:104C800021AE8C01DC018D919D910D90BC91A02DE8
:104C900089839A83AB83BC83F801C480D580E68086
:104CA000F7804090A6055090A7056090A8057090E9
:104CB000A905C301B2010F94E1A84B015C01C30136
:104CC000B2010F940DAC2B013C01A5019401698147
:104CD0007A818B819C810F94AAAB6D837E838F83B5
:104CE0009887A3019201C701B6010F94AAAB9B015B
:104CF000AC016D817E818F8198850F94FFA7D801CB
:104D00006D937D938D939C931397A5019401C70197
:104D1000B6010F94AAAB6B017C01A30192016981DA
:104D20007A818B819C810F94AAAB9B01AC01C70156
:104D3000B6010F9400A8F801648375838683978376
:104D40002896E0E10D943DAEA0E0B0E0EAEAF6E29C
:104D50000D9425AE8B017A01E90144E951E16CE63D
:104D60007EEE0F945C416C0144E951E16CE67EEE0D
:104D7000C8010F945C418C0160910A1470910B146E
:104D8000643981E1780731F4F701D182C082198357
:104D9000088346C0809150059091510568177907A6
:104DA000C1F07093510560935005882777FD809579
:104DB000982F0F947FA920E030EA4CE855E40F9437
:104DC000E4A8609306027093070280930802909310
:104DD00009028090060290900702A0900802B0900D
:104DE0000902B601882777FD8095982F0F947FA937
:104DF000A50194010F94AAAB0F944CA9F7017183FC
:104E00006083B801882777FD8095982F0F947FA93C
:104E1000A50194010F94AAAB0F944CA979836883E0
:104E2000CDB7DEB7ECE00D9441AE8F929F92AF927A
:104E3000BF92EF920F931F9380910006882309F48D
:104E400055C08150809300068091701582608093D8
:104E500070156091C3117091C411882777FD8095FA
:104E6000982F0F947FA920E030E04AE755E40F9493
:104E7000E4A80F947E414B015C016091E0117091B8
:104E8000E111882777FD8095982F0F947FA920E066
:104E900030E04AE755E40F94E4A80F947E418B017B
:104EA0009C018091140D82608093140DE091E20CBE
:104EB000F091E30CEE24E394809100068111E12C43
:104EC00000A4F1A5E02DB501A40182EE9CE01995A6
:104ED0008091000681110AC08091140D8D7F80930E
:104EE000140D809170158D7F809370151F910F9117
:104EF000EF90BF90AF909F908F9008958091ED0AB2
:104F0000982F9D7F953029F484E496E00E9427C471
:104F100010C0833051F0863041F0843099F4809194
:104F20001A0A90911B0A019769F484E496E00E94A2
:104F300044C460932B0A70932C0A80932D0A90939B
:104F40002E0A089510922B0A10922C0A10922D0A04
:104F500010922E0A0895A5E2B0E0E1EBF7E20D947D
:104F60002DAE8E010F5F1F4F25E2F80111922A9599
:104F7000E9F7B8010F9431576091A50C7091A60C18
:104F8000A80184E191E10F94BF87A596E4E00D9418
:104F900049AECF93C82F61EF70E181E090E03EDE33
:104FA0008EE090E1CC2319F00E94C8E202C00E947A
:104FB0004AE462ED70E181E090E030DECF91089547
:104FC000CF93DF93C8E2D0E0809108149091091448
:104FD000DC01ED91FC910284F385E02D61E370E149
:104FE00019952197209781F78091081490910914C1
:104FF0000F945EA1DF91CF910895CF92DF92EF924F
:10500000FF920F931F938091481490914914DC01F3
:10501000ED91FC910680F781E02D19952091050610
:10502000309106064091890550918A05241735076D
:1050300079F030938A0520938905609385057093F4
:1050400086058093870590938805109284053DC05E
:1050500020910E022223C9F1009185051091860549
:1050600020918705309188056B017C01C01AD10A17
:10507000E20AF30A9701860141E8C41644E8D4061F
:105080004EE1E406F10418F041E0409384054091BC
:1050900084054423D1F0013412442F403105A8F097
:1050A00060938505709386058093870590938805A6
:1050B00080913E0A80FF09C060E083E39AE00F948C
:1050C000046483E39AE00F94A0651F910F91FF9011
:1050D000EF90DF90CF9008958DE197E00E94A1A31B
:1050E00061E083E39AE00D94536508952F923F9217
:1050F0004F925F926F927F928F929F92AF92BF92E8
:10510000CF92DF92EF92FF920F93CF93DF93CDB7C1
:10511000DEB7A8970FB6F894DEBF0FBECDBF1C0157
:10512000E091F10E8CE0E89FF0011124E554F14F7D
:1051300080859185A285B3858D8F9E8FAF8FB8A313
:1051400084819581A681B78189A39AA3ABA3BCA3CF
:10515000C080D180E280F3808090EC0C9090ED0CC8
:10516000A090EE0CB090EF0C4090E80C5090E90C41
:105170006090EA0C7090EB0C8091E40C9091E50C3F
:10518000A091E60CB091E70C8DA39EA3AFA3B8A7A6
:10519000BCDB69837A838B839C838DA19EA1AFA1A5
:1051A000B8A58D839E83AF83B88749865A866B8660
:1051B0007C868D869E86AF86B88AC98ADA8AEB8A13
:1051C000FC8A89A19AA1ABA1BCA18D8B9E8BAF8BD0
:1051D000B88F8D8D9E8DAF8DB8A1898F9A8FAB8F33
:1051E000BC8F07E22CE1AE014F5F5F4F6EE1C10162
:1051F0000F94B09CA8960FB6F894DEBF0FBECDBF3B
:10520000DF91CF910F91FF90EF90DF90CF90BF9003
:10521000AF909F908F907F906F905F904F903F9056
:105220002F900895A6E2B0E0E8E1F9E20D941FAEF8
:105230001C018091C0109091C11002974CF0809099
:10524000B7109090B810A090B910B090BA1003C0E9
:105250005CDB4B015C012091F80C3091F90C3E8F26
:105260002D8FC090DF10D090E010E090E110F09012
:10527000E21020E030E048EC52E46091E3107091DD
:10528000E4108091E5109091E6100F94AAAB0F9472
:105290004CA96BA37CA38DA39EA32091960930916A
:1052A000970940919809552747FD5095AAE0B0E02D
:1052B0000F947EAC2B013C012091C9103091CA1093
:1052C0004091CB10552747FD50950F947EAC20910F
:1052D0009D0930919E0940919F095091A0092F8FFF
:1052E00038A349A35AA30091990910919A092091D2
:1052F0009B0930919C0989829A82AB82BC820D8382
:105300001E832F8338872F8D38A149A15AA1298761
:105310003A874B875C876D877E878F87988B498A12
:105320005A8A6B8A7C8A20E030E048EC52E4C7015C
:10533000B6010F94AAAB0F944CA97E8B6D8B4BA139
:105340005CA1588F4F8B20E030E048EC52ECC70155
:10535000B6010F94AAAB0F944CA97A8F698F8D8DEB
:105360009E8D9C8F8B8F08E62CE1AE014F5F5F4FC7
:1053700061E2C1010F94B09CA696E2E10D943BAEB0
:105380004F925F926F927F928F929F92AF92BF9255
:10539000EF92FF920F931F93CF93DF93CDB7DEB7BA
:1053A00064970FB6F894DEBF0FBECDBF7C0160914D
:1053B000AF097091B009882777FD8095982F0F94D9
:1053C0007FA920E030E048EC52E40F94E4A84B01C0
:1053D0005C018091960990919709A09198099C0190
:1053E0004A2F552747FD5095CA01B9010F947FA94F
:1053F00020E030E048EC52E40F94E4A82B013C019B
:105400008091FF11909100126AE070E00F94BDACA2
:105410008B016091F80C7091F90C8091FA0C9091CD
:10542000FB0C24E630E040E050E00F94F2ACCA01FF
:10543000B90128E631E040E050E00F94F2AC209151
:10544000D4103091D5104091D6105091D7102983A7
:105450003A834B835C832D833E834F8358874986F1
:105460005A866B867C868D869E86AF86B88A7A8BB6
:10547000698B1C8B0B8B04E124E1AE014F5F5F4F06
:105480006AE4C7010F94B09C64960FB6F894DEBF2F
:105490000FBECDBFDF91CF911F910F91FF90EF9085
:1054A000BF90AF909F908F907F906F905F904F9044
:1054B00008950F93CF93DF931F921F92CDB7DEB75E
:1054C0002091AE0C3091AF0C2F3F4FEF340719F401
:1054D00040E020E002C0422F232F49832A830CE1C1
:1054E00022E0AE014F5F5F4F6AE20F94B09C0F90D5
:1054F0000F90DF91CF910F9108950F93CF93DF938A
:10550000CDB7DEB728970FB6F894DEBF0FBECDBF7C
:105510002091BD05222349F1F091E005F0FD02C084
:10552000E0E001C0E2E0F1FDE3E02091E50530912B
:10553000E6054091E1055091E2056091E305709127
:10554000E40549835A836B837C833E832D8321E06A
:10555000F11101C020E02F83E8870DEB28E0AE01B8
:105560004F5F5F4F62EA0F94B09C28960FB6F89495
:10557000DEBF0FBECDBFDF91CF910F910895A3E0A5
:10558000B0E0E5ECFAE20D942BAE7C01809138148A
:1055900090913914DC01ED91FC910488F589E02D9E
:1055A0001995182F80913C1490913D14DC01ED91D8
:1055B000FC910480F581E02D199520E030E04AE768
:1055C00054E40F94AAAB0F9451A97A8369831B8387
:1055D00005E123E0AE014F5F5F4F65EAC7010F941D
:1055E000B09C2396E6E00D9447AEA0E0B0E0EBEF70
:1055F000FAE20D942DAEFE0138962191319181E0B1
:105600008093F50A8F0142E350E066EF7AE08091E3
:105610004A1490914B140F94C30962E170E082EF39
:105620009AE00F949D908091C90B882379F083E3D1
:10563000E5EFFAE0ACECBBE001900D928A95E1F762
:1056400062E170E089EC9BE00F949D90E4E00D94A2
:1056500049AE8091E00A85FF06C08F7D8093E00A05
:1056600060E081E11FC908958091EE0A87FD06C0C0
:105670008091F00A82FB882780F9089581E00895DF
:105680008091F00A80FF2DC08E7F8093F00A60E049
:1056900083E39AE00F9404641092800510928105D0
:1056A000109282051092830510927C0510927D0560
:1056B00010927E0510927F058AE991E10F94B76FF1
:1056C0008FE691E10F94B76F88E791E10F94B76F80
:1056D00089E791E10F94B76F809170158B7F80936C
:1056E000701508958091ED0A982F9D7F953039F4BB
:1056F0008091490690914A060E9482A810C083308A
:1057000051F0863041F08430A9F480911A0A9091CA
:105710001B0A019779F484E496E00E94E0C00F949C
:1057200051A960931F0A7093200A8093210A9093D5
:10573000220A089510921F0A1092200A1092210A3C
:105740001092220A0895CF92DF92EF92FF920F9368
:105750001F930091270A1091280A2091290A30915D
:105760002A0A80910B0A90910C0AA0910D0AB0911F
:105770000E0A801B910BA20BB30BB7FF07C0B095AD
:10578000A095909581959F4FAF4FBF4F853F91401A
:10579000A105B10594F100930B0A10930C0A209314
:1057A0000D0A30930E0AC901B801605B794B8F4F27
:1057B0009F4F24E630E040E050E00F94F2ACCA0185
:1057C000B9010F947FA90F947E416B017C010F9466
:1057D000E1A86093150270931602809317029093CC
:1057E0001802C701B6010F940DAC6093070A7093BD
:1057F000080A8093090A90930A0A1F910F91FF905B
:10580000EF90DF90CF9008958EE09FE00E94C3F16B
:105810008823F1F08EE09FE00E94E1EF8823C1F041
:105820008EE09FE09093160D8093150D8091100DE2
:10583000992787FD9095E0911D0DF0911E0DEA5B73
:10584000FF4F918380839093D00F8093CF0F089563
:105850008091081490910914DC01ED91FC9104846D
:10586000F585E02D63E27FE0199561E083E01AC8D9
:10587000089520E030E0A9016091821170918311B8
:1058800080918411909185110F94DDA818161CF059
:105890001092E60A08958091EB059091EC05DC01E9
:1058A000ED91FC910480F581E02D609181111995B5
:1058B0008091EB059091EC05DC01ED91FC91028467
:1058C000F385E02D199520E030E04FE753E40F9485
:1058D000AAAB209182113091831140918411509193
:1058E00085110F94E4A80F944CA9DC01CB014FEF74
:1058F00050E060E070E00F945C418093E60A089508
:10590000CF92DF92EF92FF92CF93DF93D82F8091C7
:10591000B711813011F083FF66C08091ED0A0DD878
:10592000C82F80917811833009F4C1E08BEB95E0AA
:105930000E947DB381FD03C0CC2309F454C0809143
:10594000951081FF06C0DD2309F440C063EC71E1CE
:105950003AC006D8C82F81110BC0DD2329F06FEAA9
:1059600071E183E090E05AD9809170158E7F38C044
:1059700086E499E00F9418506B017C0120E030E040
:10598000A9010F94DDA8882351F020E030E048E41D
:1059900052E4C701B6010F945AAB18162CF4DD235C
:1059A000A9F06AE971E10FC04091DC105091DD105F
:1059B00020917A1130917B112417350770F4DD2383
:1059C00029F064E871E183E090E028D980917015B6
:1059D0008E7F80937015C0E00CC08091701581603F
:1059E0008093701506C0809170158160809370154A
:1059F000C1E08C2FDF91CF91FF90EF90DF90CF909F
:105A000008950F931F93CF93DF9380914214909149
:105A10004314DC01ED91FC910088F189E02D19958A
:105A20009091EF0A95FB222720F98217F1F080FB75
:105A300095F99093EF0AC0912E14D0912F14E8811C
:105A4000F9810689178995FF05C0809164119091AD
:105A5000651104C080916611909167110E94E8ED74
:105A6000AB01BC01CE01F8011995DF91CF911F91D7
:105A70000F9108958091960990919709A0919809A6
:105A8000883E9340A1054CF060914807709149070A
:105A900080914A0790914B070895809190119091C1
:105AA000911197FF03C091958195910966277727FA
:105AB000681B790B882777FD8095982F0D947FA917
:105AC0004F925F926F927F928F929F92AF92BF920E
:105AD000CF92DF92EF92FF92CF93DF93009741F046
